:020000040800F2
:1000000078070020B5010008FD1E0008D91C000873
:10001000F91E0008BD020008592B0008000000006E
:10002000000000000000000000000000AD240008F7
:10003000C102000800000000A5220008CD2500082C
:10004000CF010008CF010008CF010008CF01000850
:10005000CF010008CF010008CF010008CF01000840
:10006000CF010008CF010008CF010008CF01000830
:10007000CF010008CF010008CF010008CF01000820
:10008000CF010008CF010008CF010008CF01000810
:10009000CF010008CF010008CF010008CF01000800
:1000A000CF010008CF010008CF010008CF010008F0
:1000B000CF010008CF010008CF010008CF010008E0
:1000C000CF010008CF010008CF010008CF010008D0
:1000D000CF010008CF010008CF010008CF010008C0
:1000E000CF010008CF010008CF01000800F002F89E
:1000F00000F050F814A696E8000CB244B344DA4578
:1001000001D100F047F8BAE80F000FA696E83000DA
:10011000A5EB040504EB0607AAEB0704A7F101070A
:100120004FEA15154FEA3414A4F10104AC4201D38F
:1001300000F030F813F0010F18BFFB1A43F0010371
:1001400000F001F8DBE71847E83000000831000054
:10015000103A24BF78C878C1FAD8520724BF30C8F3
:1001600030C144BF04680C60704700007047000055
:100170000023002400250026103A28BF78C1FBD8B0
:10018000520728BF30C148BF0B6070471FB51FBD65
:1001900010B510BD00F058F81146FFF7F7FF02F058
:1001A00025FD00F076F803B4FFF7F2FF03BC00F082
:1001B0007DF800000948804709480047FEE7FEE750
:1001C000FEE7FEE7FEE7FEE7FEE7FEE7FEE7FEE707
:1001D00004480549054A064B7047000041260008BF
:1001E000ED00000878010020780700207803002047
:1001F000780300204FF0000200B51346944696465F
:10020000203922BFA0E80C50A0E80C50B1F1200129
:10021000BFF4F7AF090728BFA0E80C5048BF0CC0D7
:100220005DF804EB890028BF40F8042B08BF704735
:1002300048BF20F8022B11F0804F18BF00F8012BA7
:100240007047704770477047754600F02BF8AE4610
:1002500005006946534620F00700854618B020B5D2
:10026000FFF7B6FFBDE820404FF000064FF0000753
:100270004FF000084FF0000BAC46ACE8C009ACE80A
:10028000C009ACE8C009ACE8C00921F007018D46FF
:10029000704710B50446AFF300802046BDE810401B
:1002A000FFF781BF00487047100000200149182067
:1002B000ABBEFEE72600020070470000FFE7FEE746
:1002C0007047000081B0EFF3108072B60090FFE736
:1002D000FEE7000080B584B0039000F0C5F90290FD
:1002E000039801900198013048B1FFE740F2040003
:1002F000C2F200000178019808440190FFE7FFE78F
:1003000000F0B2F90299401A0199884201D2FFE740
:10031000F6E704B080BD000090B00F900E91002071
:100320000D900990FFE70E9800680D99C8400028CD
:1003300000F07F81FFE70D99012088400C900E9816
:1003400000680C9908400B900B980C99884240F07B
:100350006C81FFE70E9840680590002851D0FFE7B8
:10036000059801283AD0FFE7059802283FD0FFE71B
:10037000059803285FD0FFE70598112832D0FFE7E2
:100380000598122838D0FFE705980021C1F2110125
:10039000884236D0FFE705980021C1F21201884259
:1003A0002FD0FFE705980021C1F22101884228D013
:1003B000FFE705980021C1F22201884221D0FFE722
:1003C00005980021C1F2310188421AD0FFE7059853
:1003D0000021C1F23201884213D02FE00E98C0688C
:1003E00009902CE00E98C0680430099027E00E9820
:1003F000C0680830099022E00E98C0680C3009905F
:100400001DE00E98806818B9FFE70420099011E0FC
:100410000E988068012806D1FFE7082009900C9803
:100420000F99086105E0082009900C980F99486120
:10043000FFE7FFE703E00020099000E0FFE70B98EB
:10044000FF2803D8FFE70F98049003E00F980430CB
:100450000490FFE7049808900B98FF2804D8FFE762
:100460000D988000039006E00D996FF01F0000EBDF
:1004700081000390FFE70398079008980068079AA7
:100480000F219140884309999140084308990860D9
:100490000E98C079C006002840F1C680FFE7FFE74C
:1004A00041F21800C4F20200016841F0010101604C
:1004B000006800F0010006900698FFE70D9820F014
:1004C00003000821C4F2010140580A900D9800F081
:1004D000030081000F2000FA01F10A9888430A9076
:1004E0000F9840F60001C4F20101884203D1FFE7F2
:1004F0000020029026E00F9840F60041C4F201016E
:10050000884203D1FFE70120019018E00F9841F2E3
:100510000001C4F20101884203D1FFE702200090EC
:100520000AE00F9941F20042C4F201020420914214
:1005300008BF03200090FFE700980190FFE70198B3
:100540000290FFE702980D9901F00301890000FA7B
:1005500001F10A9808430A900A980D9921F00301C5
:100560000822C4F2010288500E988079C006002843
:1005700009D5FFE70B9A40F20841C4F2010108686F
:100580001043086008E00B9A40F20841C4F20101F0
:10059000086890430860FFE70E988079800600287D
:1005A00009D5FFE70B9A40F20C41C4F2010108683B
:1005B0001043086008E00B9A40F20C41C4F20101BC
:1005C000086890430860FFE70E988079800700284C
:1005D00009D5FFE70B9A40F20441C4F20101086813
:1005E0001043086008E00B9A40F20441C4F2010194
:1005F000086890430860FFE70E988079C00748B10B
:10060000FFE70B9A40F20041C4F201010868104371
:10061000086008E00B9A40F20041C4F2010108684A
:1006200090430860FFE7FFE7FFE70D9801300D906A
:1006300079E610B07047000082B00190ADF802106A
:100640008DF801209DF8010028B1FFE7BDF80200F8
:100650000199086105E0BDF80200000401990861F4
:10066000FFE702B07047000040F27010C2F20000D5
:100670000068704740F20400C2F20000027840F2C5
:100680007011C2F200010868104408607047000051
:1006900080B542F20001C4F20201086840F0100087
:1006A0000860032000F08CF80F2000F005F800F03F
:1006B0003BF8002080BD000080B582B0009040F281
:1006C0000000C2F20000006840F20401C2F2000122
:1006D0000A784FF47A71B1FBF2F1B0FBF1F001F05E
:1006E00003F820B1FFE701208DF8070018E000981B
:1006F0000F280DD8FFE700994FF0FF30002200F0DF
:1007000045F8009840F20801C2F20001086003E0D9
:1007100001208DF8070003E000208DF80700FFE7B7
:100720009DF8070002B080BD83B0FFE741F21800DA
:10073000C4F20200016841F001010160006800F0AC
:10074000010002900298FFE7FFE741F21C00C4F2AB
:100750000200016841F080510160006800F08050A3
:1007600001900198FFE7FFE70421C4F20101086846
:100770000090009820F0E0600090009840F0007039
:10078000009000980860FFE703B0704780B586B01E
:100790008DF81700049103920020029002F0DEF918
:1007A00002909DF91700019002980499039A01F0B4
:1007B00043FD0146019802F0D9F906B080BD000062
:1007C00080B582B00190019802F0F2F902B080BDCC
:1007D00080B584B002900191029820B9FFE7012012
:1007E0008DF80F001BE1019842F20001C4F20201F2
:1007F000096801F00701884216D9FFE742F20000BC
:10080000C4F20200016821F00701019A114301605E
:10081000006800F007000199884204D0FFE701203A
:100820008DF80F00FBE0FFE70298007880070028B2
:100830002AD5FFE7029800784007002809D5FFE78E
:1008400041F20401C4F20201086840F4E06008606B
:10085000FFE7029800780007002809D5FFE741F27A
:100860000401C4F20201086840F460500860FFE728
:1008700041F20401C4F20201086820F0F000029A7B
:10088000926810430860FFE702980078C0070028CC
:1008900060D0FFE70298406801280ED1FFE741F2DF
:1008A0000000C4F2020000688003002804D4FFE7BF
:1008B00001208DF80F00B2E021E002984068022884
:1008C0000ED1FFE741F20000C4F20200006880018F
:1008D000002804D4FFE701208DF80F009FE00DE011
:1008E00041F20000C4F2020000688007002804D42E
:1008F000FFE701208DF80F0091E0FFE7FFE741F2ED
:100900000401C4F20201086820F00300029A526850
:1009100010430860FFF7A8FE0090FFE741F20400D3
:10092000C4F20200006800F00C0002994968B0EBC4
:10093000810F0ED0FFE7FFF797FE0099401A41F2B2
:100940008931884204D3FFE703208DF80F0066E069
:10095000E4E7FFE7019842F20001C4F202010968EE
:1009600001F00701884216D2FFE742F20000C4F20C
:100970000200016821F00701019A1143016000683B
:1009800000F007000199884204D0FFE701208DF8AC
:100990000F0044E0FFE702980078400700280CD5DC
:1009A000FFE741F20401C4F20201086820F4E060AC
:1009B000029AD26810430860FFE7029800780007A7
:1009C00000280DD5FFE741F20401C4F202010868D6
:1009D00020F46050029A126940EAC2000860FFE702
:1009E00000F04CF841F20401C4F202010968C9B2F6
:1009F0000A0943F20621C0F60001895CC84040F2B2
:100A00000001C2F20001086040F20800C2F20000DA
:100A10000068FFF751FE00208DF80F00FFE79DF8FA
:100A20000F0004B080BD000040F20000C2F20000E0
:100A30000068704780B5FFF7F7FF41F20401C4F288
:100A400002010968C1F3022243F21621C0F6000137
:100A5000895CC84080BD000080B5FFF7E5FF41F22A
:100A60000401C4F202010968C1F3C22243F2162153
:100A7000C0F60001895CC84080BD000086B000203F
:100A80000590049003900290019041F20400C4F29A
:100A9000020000680590059800F00C0001460091E6
:100AA00000283FD0FFE70098042804D0FFE7009813
:100AB000082806D037E041F20020C0F27A00019009
:100AC00037E00598C0F3834143F21E20C0F60000D2
:100AD000405C02909DF81600C007C0B1FFE741F2EC
:100AE0000400C4F202000068C0F3404143F22E202B
:100AF000C0F60000405C0490029841F20021C0F270
:100B00007A0148430499B0FBF1F0039007E00298A2
:100B100040F60011C0F23D0148430390FFE70398FF
:100B2000019006E0FFE741F20020C0F27A00019058
:100B3000FFE7019806B0704780B586B0049004982E
:100B400020B9FFE701208DF817002EE30498007804
:100B5000C007002800F0AE80FFE741F20400C4F2B5
:100B60000200006800F00C00042813D0FFE741F2F7
:100B70000400C4F20200006800F00C0008281BD139
:100B8000FFE741F20400C4F202000068C00300283D
:100B900012D5FFE741F20000C4F2020000688003B2
:100BA000002808D5FFE70498406820B9FFE7012036
:100BB0008DF81700F9E27CE0FFE704984068B0F593
:100BC000803F09D1FFE741F20001C4F20201086849
:100BD00040F48030086032E00498406868B9FFE76C
:100BE00041F20001C4F20201086820F4803008607C
:100BF000086820F48020086020E004984068B0F580
:100C0000A02F0DD1FFE741F20001C4F202010868F4
:100C100040F480200860086840F4803008600CE0F0
:100C200041F20001C4F20201086820F4803008603B
:100C3000086820F480200860FFE7FFE7FFE7FFE790
:100C400004984068D0B1FFE7FFF70EFD0390FFE77F
:100C500041F20000C4F202000068800300280CD4B6
:100C6000FFE7FFF701FD0399401A652804D3FFE76A
:100C700003208DF8170098E2EAE719E0FFF7F4FC8B
:100C80000390FFE741F20000C4F202000068800315
:100C900000280CD5FFE7FFF7E7FC0399401A652809
:100CA00004D3FFE703208DF817007EE2EAE7FFE7B1
:100CB000FFE7FFE7049800788007002840F18D8067
:100CC000FFE741F20400C4F20200006810F00C0FCC
:100CD00013D0FFE741F20400C4F20200006800F004
:100CE0000C00082829D1FFE741F20400C4F20200F9
:100CF0000068C003002820D4FFE741F20000C4F2DE
:100D0000020000688007002809D5FFE70498006901
:100D1000012804D0FFE701208DF8170045E241F2D9
:100D20000001C4F20201086820F0F800049A526938
:100D300040EAC2000860FFE74EE00498006958B33B
:100D4000FFE70021C4F2422101200860FFF78CFC7C
:100D50000390FFE741F20000C4F202000068800740
:100D600000280CD4FFE7FFF77FFC0399401A032803
:100D700004D3FFE703208DF8170016E2EAE741F2FB
:100D80000001C4F20201086820F0F800049A5269D8
:100D900040EAC20008601EE00021C4F242210020A7
:100DA0000860FFF761FC0390FFE741F20000C4F226
:100DB00002000068800700280CD5FFE7FFF754FC0D
:100DC0000399401A032804D3FFE703208DF8170086
:100DD000EBE1EAE7FFE7FFE7FFE7049800780007A9
:100DE000002848D5FFE70498806918B3FFE740F270
:100DF0008041C4F2422101200860FFF735FC0390D6
:100E0000FFE741F22400C4F20200006880070028D6
:100E10000CD4FFE7FFF728FC0399401A032804D3FA
:100E2000FFE703208DF81700BFE1EAE7012001F09A
:100E30003BFA1FE040F28041C4F2422100200860EA
:100E4000FFF712FC0390FFE741F22400C4F2020016
:100E50000068800700280CD5FFE7FFF705FC039921
:100E6000401A032804D3FFE703208DF817009CE104
:100E7000EAE7FFE7FFE7049800784007002840F121
:100E8000D880FFE700208DF8070041F21C00C4F273
:100E900002000068C000002813D4FFE7FFE741F21A
:100EA0001C00C4F20200016841F08051016000683A
:100EB00000F0805000900098FFE701208DF80700B7
:100EC000FFE747F20000C4F200000068C0050028F8
:100ED00022D4FFE747F20001C4F20001086840F4A1
:100EE00080700860FFF7C0FB0390FFE747F2000047
:100EF000C4F200000068C00500280CD4FFE7FFF72B
:100F0000B3FB0399401A652804D3FFE703208DF84B
:100F100017004AE1EAE7FFE7FFE70498C068012805
:100F200009D1FFE741F22001C4F20201086840F054
:100F30000100086031E00498C06868B9FFE741F239
:100F40002001C4F20201086820F00100086008686E
:100F500020F0040008601FE00498C06805280DD147
:100F6000FFE741F22001C4F20201086840F00400EA
:100F70000860086840F0010008600CE041F22001C0
:100F8000C4F20201086820F001000860086820F03F
:100F900004000860FFE7FFE7FFE7FFE70498C06889
:100FA000E0B1FFE7FFF760FB0390FFE741F22000AD
:100FB000C4F202000068800700280ED4FFE7FFF7A4
:100FC00053FB0399401A41F28931884204D3FFE769
:100FD00003208DF81700E8E0E8E71BE0FFF744FB8B
:100FE0000390FFE741F22000C4F20200006880078E
:100FF00000280ED5FFE7FFF737FB0399401A41F2AF
:101000008931884204D3FFE703208DF81700CCE034
:10101000E8E7FFE79DF80700012809D1FFE741F263
:101020001C01C4F20201086820F080500860FFE74C
:10103000FFE70498C069002800F0B380FFE741F2A1
:101040000400C4F20200006800F00C00082800F060
:101050008280FFE70498C06902285CD1FFE7602125
:10106000C4F2422100200860FFF7FEFA0390FFE778
:1010700041F20000C4F202000068800100280CD593
:10108000FFE7FFF7F1FA0399401A032804D3FFE7BB
:1010900003208DF8170088E0EAE70498006AB0F5AD
:1010A000803F0CD1FFE741F20401C4F2020108685D
:1010B00020F40030049A926810430860FFE741F280
:1010C0000401C4F20201086820F47410049B1A6A37
:1010D0005B6A1A43104308606021C4F24221012078
:1010E0000860FFF7C1FA0390FFE741F20000C4F285
:1010F00002000068800100280CD4FFE7FFF7B4FA73
:101100000399401A032804D3FFE703208DF8170042
:101110004BE0EAE71EE06021C4F2422100200860B3
:10112000FFF7A2FA0390FFE741F20000C4F20200C9
:101130000068800100280CD5FFE7FFF795FA0399B6
:10114000401A032804D3FFE703208DF817002CE092
:10115000EAE7FFE724E00498C069012804D1FFE72B
:1011600001208DF8170020E041F20400C4F20200D3
:1011700000680290029800F480300499096A88425D
:1011800008D1FFE7029800F470100499496A884278
:1011900004D0FFE701208DF8170006E0FFE7FFE726
:1011A000FFE700208DF81700FFE79DF8170006B055
:1011B00080BD000080B584B00290029820B9FFE79E
:1011C00001208DF80F006EE00298406A60B9FFE7D9
:1011D00002984068B0F5827F01D1FFE703E00299F1
:1011E0000020C861FFE705E002990020086102992C
:1011F0004861FFE7029900208862029890F8510048
:1012000040B9FFE70299002081F85000029800F0F1
:101210004FF8FFE70299022081F851000298016817
:10122000086820F040000860029A01921168506836
:10123000D2F808C0D36800F482700CF4044C604407
:1012400003F400631844136903F00203184453695C
:1012500003F001031844936903F400731844D3693D
:1012600003F038031844136A03F080031843926AAA
:1012700002F4005210430860029801688269042059
:1012800000EA1240486002980168C86920F40060D2
:10129000C861029900204865029A012182F8511024
:1012A0008DF80F00FFE79DF80F0004B080BD00002F
:1012B00080B58AB0099000200890079006900590AC
:1012C0000998006843F20001C4F20101884237D155
:1012D000FFE7FFE741F21800C4F20200016841F4A1
:1012E00080510160006800F4805004900498FFE78A
:1012F000FFE741F21800C4F20200016841F0040166
:101300000160006800F0040003900398FFE7A0204C
:101310000590022006900320089040F60000C4F2D9
:101320000100019005A90291FEF7F6FF01980299CC
:1013300040220592002206920792FEF7EDFFFFE79A
:101340000AB080BD80B58CB0DDF838C00A90099134
:101350000892ADF81E3001200390FFF785F9049044
:101360000A9890F851008DF817000A984068069086
:10137000BDF81E00ADF81C009DF81700012812D022
:10138000FFE70698B0F5827F09D1FFE70A988068E9
:1013900028B9FFE79DF81700042804D0FFE70220D2
:1013A0008DF82F009BE1099838B1FFE7089820B12C
:1013B000FFE7BDF81E0020B9FFE701208DF82F00E0
:1013C0008DE1FFE70A9890F85000012804D1FFE76B
:1013D00002208DF82F0082E10A99012081F8500047
:1013E000FFE7FFE70A9890F85100042805D0FFE7CF
:1013F0000A99052081F85100FFE70A990020486505
:1014000008990A9A9163BDF81E100A9AD187BDF80F
:101410001E100A9A918709990A9A1163BDF81E1045
:101420000A9AD186BDF81E100A9A91860A99086414
:101430000A9948640A980068006800F04000402853
:1014400007D0FFE70A980168086840F0400008608C
:10145000FFE70A98C068B0F5006F40F08180FFE7B1
:101460000A98406828B1FFE7BDF81C0001280ED19A
:10147000FFE70A980168006B0088C8600A99086B4A
:10148000023008630A99C88E0138C886FFE7FFE773
:101490000A98C18E0120019039B9FFE70A98C08FE0
:1014A000002818BF01200190FFE70198C00700281D
:1014B00055D0FFE70A98006880688007002818D593
:1014C000FFE70A98C08EA0B1FFE70398012810D16A
:1014D000FFE70A980168006B0088C8600A99086BEA
:1014E000023008630A99C88E0138C886002003902C
:1014F000FFE70A9800688068C007A8B1FFE70A986C
:10150000C08F88B1FFE70A980068C0680A99896BA4
:1015100008800A99886B023088630A99C88F01385D
:10152000C88701200390FFE7FFF79EF80499401A4F
:101530000E99884212D3FFE70E98013070B1FFE791
:101540000A99012081F85100FFE70A99002081F8EB
:101550005000FFE703208DF82F00C0E098E782E0FD
:101560000A98406828B1FFE7BDF81C0001280ED199
:10157000FFE70A980168006B007808730A99086B06
:10158000013008630A99C88E0138C886FFE7FFE773
:101590000A98C18E0120009039B9FFE70A98C08FE0
:1015A000002818BF01200090FFE70098C00700281E
:1015B00058D0FFE70A98006880688007002818D58F
:1015C000FFE70A98C08EA0B1FFE70398012810D169
:1015D000FFE70A980168006B007808730A99086BA6
:1015E000013008630A99C88E0138C886002003902C
:1015F000FFE70A9800688068C007A8B1FFE70A986B
:10160000C08F88B1FFE70A980068C0680A99896BA3
:1016100008700A99886B013088630A99C88F01386D
:10162000C88701200390FFE7FFF71EF80499401ACE
:101630000E99884204D3FFE70E98013018B9FFE7EE
:101640000E9870B9FFE70A99012081F85100FFE771
:101650000A99002081F85000FFE703208DF82F0041
:101660003DE095E7FFE70A980E99049A00F03AFEEC
:1016700068B1FFE70A9920204865FFE70A99002032
:1016800081F85000FFE701208DF82F0027E00A982D
:10169000806870B9FFE7FFE7002002900A980068B1
:1016A000C06802900A980068806802900298FFE77C
:1016B000FFE70A99012081F85100FFE70A9900200D
:1016C00081F85000FFE70A98406D20B1FFE7012044
:1016D0008DF82F0003E000208DF82F00FFE79DF824
:1016E0002F000CB080BD000080B582B00190019841
:1016F00000F042FF02B080BD85B003900291FFE789
:10170000039890F83C00012804D1FFE702208DF8EF
:1017100013005BE00399012081F83C00FFE7FFE73D
:101720000399022081F83D00039800684068019009
:101730000398006880680090019820F07000019084
:10174000029801680198084301900198039909687B
:1017500048600398006842F60041C4F201018842E3
:1017600018D0FFE703980068B0F1804F12D0FFE770
:101770000398006840F20041C4F20001884209D099
:10178000FFE70398006840F60001C4F200018842B8
:101790000ED1FFE7009820F0800000900298416889
:1017A0000098084300900098039909688860FFE753
:1017B0000399012081F83D00FFE70399002081F89B
:1017C0003C00FFE700208DF81300FFE79DF81300B1
:1017D00005B0704780B586B0059000200490039056
:1017E0000290019005980068B0F1804F1CD1FFE78E
:1017F000FFE741F21800C4F20200016841F0040161
:101800000160006800F0040000900098FFE70620E7
:10181000019002200290049040F60000C4F2010002
:1018200001A9FEF779FDFFE706B080BD80B586B05F
:1018300004900391029200208DF80700FFE70498BE
:1018400090F83C00012804D1FFE702208DF8170032
:1018500089E00499012081F83C00FFE7FFE7029846
:1018600000900C2800F270800099DFE801F0076D0D
:101870006D6D206D6D6D3A6D6D6D5300049800684F
:10188000039900F07FFF04980168886940F0080020
:10189000886104980168886920F0040088610398D1
:1018A00002690498016888691043886150E00498CF
:1018B0000068039900F0CEFF04980168886940F43D
:1018C0000060886104980168886920F480608861FC
:1018D0000398026904980168886940EA02208861D7
:1018E00036E004980068039901F020F80498016834
:1018F000C86940F00800C86104980168C86920F010
:101900000400C8610398026904980168C86910431B
:10191000C8611DE004980068039901F073F8049809
:101920000168C86940F40060C86104980168C8692A
:1019300020F48060C8610398026904980168C8694E
:1019400040EA0220C86103E001208DF80700FFE7AC
:10195000FFE70499002081F83C00FFE79DF80700AD
:101960008DF81700FFE79DF8170006B080BD000056
:1019700080B582B00090009820B9FFE701208DF873
:1019800007003FE0009890F83D0040B9FFE700995C
:10199000002081F83C00009800F038F8FFE700993B
:1019A000022081F83D00009951F8040B00F04AFE36
:1019B0000099012081F84600FFE70099012081F895
:1019C0003E00009981F83F00009981F8400000999D
:1019D00081F84100FFE7FFE70099012081F842000C
:1019E000009981F84300009981F84400009981F83A
:1019F0004500FFE70099012081F83D0000208DF8A7
:101A00000700FFE79DF8070002B080BD82B001909B
:101A100001980068B0F1804F10D1FFE7FFE741F275
:101A20001C00C4F20200016841F00101016000687D
:101A300000F0010000900098FFE7FFE702B0704758
:101A400080B58AB008900791079828B9FFE70898F1
:101A500090F83E0005901CE00798042805D1FFE7A8
:101A6000089890F83F00049010E00798082805D1E6
:101A7000FFE7089890F84000039004E0089890F879
:101A800041000390FFE703980490FFE70498059056
:101A9000FFE70598012804D0FFE701208DF8270013
:101AA0007AE0079828B9FFE70899022081F83E00FC
:101AB0001EE00798042806D1FFE70899022081F864
:101AC0003F00029012E00798082806D1FFE7089926
:101AD000022081F84000019005E00899022081F879
:101AE00041000190FFE701980290FFE70298FFE7AD
:101AF000089800680799012200F028FE08980068FD
:101B000042F60041C4F20101884207D1FFE708987C
:101B10000168486C40F400404864FFE7089800689A
:101B200042F60041C4F20101884218D0FFE708984C
:101B30000068B0F1804F12D0FFE70898006840F2CB
:101B40000041C4F20001884209D0FFE7089800680C
:101B500040F60001C4F20001884212D1FFE7089864
:101B60000068806800F0070006900698062807D0F5
:101B7000FFE708980168086840F001000860FFE787
:101B800006E008980168086840F001000860FFE777
:101B900000208DF82700FFE79DF827000AB080BDE0
:101BA00080B582B00090009820B9FFE701208DF841
:101BB000070040E00098806908B1FFE700E0FFE718
:101BC000009890F8410040B9FFE70099002081F8A3
:101BD0004000009800F034F8FFE70099242081F8D5
:101BE000410000980168C86820F40050C86000985F
:101BF00000F054FF00980168086920F490400861E3
:101C000000980168486920F02A004861009801683E
:101C1000C86840F40050C860009900204864009AE9
:101C2000202182F84110009A82F8421000994863FE
:101C30008DF80700FFE79DF8070002B080BD0000A7
:101C400080B58AB009900020089007900690059012
:101C50000998006843F60001C4F20101884239D1B5
:101C6000FFE7FFE741F21800C4F20200016841F407
:101C700080410160006800F4804004900498FFE710
:101C8000FFE741F21800C4F20200016841F00401CC
:101C90000160006800F0040003900398FFE74FF430
:101CA00000700590022006900320089040F6000086
:101CB000C4F20100019005A90291FEF72DFB0198E5
:101CC00002994FF480620592002206920792FEF775
:101CD00023FBFFE70AB080BDFFE7FEE780B58EB0CB
:101CE00000200D900C900B900A90FFE741F2180035
:101CF000C4F20200016841F010010160006800F0C8
:101D0000100009900998FFE7FFE741F21800C4F2BC
:101D10000200016841F020010160006800F020002D
:101D200008900898FFE7FFE741F21800C4F20200AC
:101D3000016841F004010160006800F004000790B0
:101D40000798FFE741F20000C4F2010001904FF450
:101D50000051009100220492FEF76EFC049A40F6B6
:101D60000000C4F20100059018210291FEF764FC06
:101D7000009A019804990A92012203920B920C9105
:101D800002210D910AA90691FEF7C6FADDF808C0F6
:101D9000039B049A05980699CDF828C00B930C92E2
:101DA00003220D92FEF7B8FA0EB080BD80B582B066
:101DB00040F27000C2F20000019043F20001C4F250
:101DC000010101604FF48271416000218160C160B6
:101DD000016141614FF4007282611022C2610162AF
:101DE000416281620A21C162FFF7E4F918B1FFE79D
:101DF000FEF768FAFFE702B080BD000080B58AB048
:101E00000021009109910891079106910591049193
:101E100003910291019140F2C800C2F200004FF01C
:101E20008042026040F2CF22426081604FF4FA6249
:101E3000C260016180218161FFF79AFD18B1FFE75F
:101E4000FEF740FAFFE700200890099040F2C80032
:101E5000C2F2000008A9FFF74FFC18B1FFE7FEF738
:101E600031FAFFE760200190952002900020039056
:101E7000059040F2C800C2F2000001A90422FFF759
:101E8000D5FC18B1FFE7FEF71DFAFFE740F2C800E6
:101E9000C2F2000001A90822FFF7C8FC18B1FFE751
:101EA000FEF710FAFFE740F2C800C2F20000FFF7A9
:101EB00091FC0AB080BD000080B582B040F21010E5
:101EC000C2F20000019043F60001C4F2010101607A
:101ED0004FF4E131416000218160C16001610C2259
:101EE00042618161C161FFF75BFE18B1FFE7FEF758
:101EF000E9F9FFE702B080BDFFE7FEE7FFE7FEE795
:101F000080B588B055208DF81C0042F21120C4F233
:101F100033400690002002908DF8140004901020A9
:101F2000009006A90522019200F02CF90098019A70
:101F300004A900F0CDF802988DF80F00FFE79DF896
:101F40000F00042814DCFFE79DF80F2004A8805C34
:101F500006A9895C884204D0FFE701208DF81F00A4
:101F60000AE0FFE79DF80F0001308DF80F00E6E76B
:101F700000208DF81F00FFE79DF81F0008B080BD0E
:101F800080B586B031208DF814004FF030300490C9
:101F900040F60000C4F20100102100220192FEF779
:101FA0004BFB01980F2100F025F901210291084611
:101FB00000F020F90299022000F01CF903210846E4
:101FC00000F018F904201A2100F014F905200390FC
:101FD0004C2100F00FF90621084600F00BF9039A96
:101FE0000A2004A900F0CEF811200C2100F002F91B
:101FF0000720702100F0FEF8E220FF2100F0FAF83F
:1020000006B080BD80B584B00290072000F098F83B
:102010008DF807009DF807004006002834D5FFE73B
:1020200040F60000C4F20100082100220092FEF7F1
:1020300003FB612000F08CF900988DF80600FFE7A3
:102040009DF806000B280EDCFFE7FF2000F080F96A
:1020500002999DF806208854FFE79DF8060001309C
:102060008DF80600ECE740F60000C4F201000821FC
:102070000122FEF7E1FA9DF80710072000F0BAF8F8
:1020800000208DF80F0003E001208DF80F00FFE71E
:102090009DF80F0004B080BD80B584B040F600000C
:1020A000C4F2010001901021029100220092FEF77B
:1020B000C3FA00980F2100F09DF8019802990122BF
:1020C0000392FEF7B9FA0398FEF704F904B080BD55
:1020D00080B584B08DF80F0002918DF8072040F68E
:1020E0000000C4F20100082100220092FEF7A4FAC9
:1020F0009DF80F0000F02CF900988DF80600FFE71E
:102100009DF806009DF8071088420EDAFFE7FF20D1
:1021100000F01EF902999DF806208854FFE79DF80B
:10212000060001308DF80600EAE740F60000C4F230
:10213000010008210122FEF77FFA04B080BD0000F3
:1021400080B584B08DF80F0040F60000C4F20100A5
:102150000290082101910022FEF76EFA9DF80F000F
:1021600000F0F6F8FF2000F0F3F80199024602981B
:102170008DF80E200122FEF75FFA9DF80E0004B0E4
:1021800080BD000080B584B08DF80F0002918DF8FD
:10219000072040F60000C4F201000821002200924E
:1021A000FEF74AFA9DF80F0040F0200000F0D0F84A
:1021B00000988DF80600FFE79DF806009DF80710CF
:1021C00088420DDAFFE702989DF80610405C00F0A7
:1021D000BFF8FFE79DF8060001308DF80600EBE739
:1021E00040F60000C4F2010008210122FEF724FAA3
:1021F00004B080BD80B584B08DF80F008DF80E104E
:1022000040F60000C4F20100029008210191002272
:10221000FEF712FA9DF80F0040F0200000F098F849
:102220009DF80E0000F094F8019902980122FEF743
:1022300003FA04B080BD000088B0079006910592B3
:10224000079800F0070004900498C0F107000528E3
:1022500003D3FFE70420019004E00498C0F10700D5
:102260000190FFE70198039004980430062803D8F2
:10227000FFE70020009003E0049803380090FFE798
:102280000098029006980399012202FA01F101399F
:102290000840029B984005999A40013A1140084332
:1022A00008B070477047000082B00190019840F27A
:1022B0000001C2F200010968C90844F6D352C1F214
:1022C0006202A1FB0221890948430090FFE700BF99
:1022D000FFE70098411E00910028F8D1FFE702B007
:1022E0007047000080B586B0049003910292049874
:1022F000039B02996A4611600221012200F040F816
:1023000048B1FFE70499486D40F02000486503207C
:102310008DF8170017E00498039B02996A46116034
:102320008021002200F02CF848B1FFE70499486DA5
:1023300040F02000486503208DF8170003E00020DE
:102340008DF81700FFE79DF8170006B080BD00006C
:1023500080B582B08DF8070069464FF47A70086046
:1023600040F27000C2F200000DF107010DF106020B
:102370000123FEF7E7FF9DF8060002B080BD0000D4
:1023800080B58AB0DDF830C0089007918DF81B2029
:10239000059305980190FEF767F9024601980C999C
:1023A000891A08440390FEF75FF90290039840F2FF
:1023B0000001C2F200010968C1F3CB314843049027
:1023C000FFE708980068806807990840401AB0FA4B
:1023D00080F040099DF81B1088425ED0FFE7059809
:1023E0000130002858D0FFE7FEF73EF90299401A65
:1023F0000399884204D2FFE70398002842D1FFE7FF
:1024000008980168486820F0E00048600898406833
:10241000B0F5827F13D1FFE708988068B0F5004FD0
:1024200006D0FFE708988068B0F5806F07D1FFE716
:1024300008980168086820F040000860FFE70898E5
:10244000806AB0F5005F0FD1FFE7FFE708980168E9
:10245000086820F40050086008980168086840F493
:1024600000500860FFE7FFE70899012081F851005C
:10247000FFE70899002081F85000FFE703208DF85E
:1024800027000EE0049818B9FFE700200390FFE74B
:10249000049801380490FFE793E700208DF82700A7
:1024A000FFE79DF827000AB080BD000070470000DC
:1024B00080B586B005900491ADF80E2005980021F6
:1024C000C4F24831009100F05DFD0021C4F23431C6
:1024D000019100F079FC0021C4F2253100F012FCDA
:1024E00000F034FD0099ADF80C00049800F04AFDAE
:1024F000019900F069FC01460020C4F2163000F09A
:102500000DFE00F023FDADF80A00BDF80C003128E7
:1025100004DCFFE73220ADF80C00FFE7BDF80C004B
:10252000FB2804DBFFE7FA20ADF80C00FFE7BDF85D
:102530000A00312804DCFFE73220ADF80A00FFE78B
:10254000BDF80A00FB2804DBFFE7FA20ADF80A001B
:10255000FFE7BDF80C0040F2C801C2F200010A68B2
:102560009063BDF80A000968C863BDF80E00FDF766
:10257000B1FE06B080BD000080B582B0009000982A
:102580000138B0F1807F03D3FFE70120019019E00B
:10259000009801384EF21401CEF2000108604FF0AD
:1025A000FF300F2100F0E2FA4EF21801CEF20001E6
:1025B000002008604EF21002CEF2000207211160E6
:1025C0000190FFE7019802B080BD000080B5FEF7E2
:1025D00051F880BD80B590B006A800902821FDF785
:1025E00009FE00980023059304930393029301933B
:1025F000012206924FF48031079108930A92022239
:102600000D920E914FF4E0110F91FEF795FA18B16B
:10261000FFE7FDF757FEFFE70F200190022102912F
:10262000002003904FF480620492059001A8FEF709
:10263000CFF818B1FFE7FDF745FEFFE710B080BD0A
:102640007047000083B002900191029800680090EA
:10265000029842F60041C4F20101884215D0FFE71A
:102660000298B0F1804F10D0FFE7029840F200418D
:10267000C4F20001884208D0FFE7029840F600014A
:10268000C4F2000188420AD1FFE7009820F07000F0
:10269000009001984168009808430090FFE7029875
:1026A00042F60041C4F20101884215D0FFE70298CA
:1026B000B0F1804F10D0FFE7029840F20041C4F221
:1026C0000001884208D0FFE7029840F60001C4F2FA
:1026D000000188420AD1FFE7009820F44070009082
:1026E0000198C168009808430090FFE7009820F027
:1026F0008000019949690843009000980299086098
:10270000019880680299C8620198006802998862FD
:10271000029842F60041C4F20101884205D1FFE768
:102720000198006902990863FFE702990120486156
:1027300002980069C00730B1FFE70299086920F0EC
:1027400001000861FFE703B07047000084B0039008
:1027500002910192029800F01F0101208840009030
:10276000009A0399086A904308620198029901F05F
:102770001F0100FA01F20399086A1043086204B0CD
:102780007047000085B0049003910498006A01909E
:102790000499086A20F001000862049840680090DB
:1027A000049880690290029820F0700002900298CC
:1027B00020F00300029003980168029808430290F9
:1027C000019820F002000190039881680198084365
:1027D0000190049842F60041C4F2010188420ED1F2
:1027E000FFE7019820F0080001900398C168019864
:1027F00008430190019820F004000190FFE704983D
:1028000042F60041C4F20101884213D1FFE700986B
:1028100020F480700090009820F4007000900398DD
:102820004169009808430090039881690098084323
:102830000090FFE700980499486002980499886125
:10284000039840680499486301980499086205B0A8
:102850007047000085B0049003910498006A0190CD
:102860000499086A20F010000862049840680090FB
:10287000049880690290029820F4E0400290029847
:1028800020F44070029003980168029840EA012009
:102890000290019820F0200001900398816801982F
:1028A00040EA01100190049842F60041C4F201018F
:1028B00088420FD1FFE7019820F080000190039833
:1028C000C168019840EA01100190019820F0400091
:1028D0000190FFE7049842F60041C4F201018842EA
:1028E00015D1FFE7009820F480600090009820F454
:1028F0000060009003984169009840EA81000090D0
:1029000003988169009840EA81000090FFE70098F1
:102910000499486002980499886103984068049972
:10292000886301980499086205B0704785B00490E7
:1029300003910498006A01900499086A20F4807059
:1029400008620498406800900498C0690290029858
:1029500020F070000290029820F00300029003988B
:102960000168029808430290019820F400700190D9
:1029700003988168019840EA01200190049842F68A
:102980000041C4F2010188420FD1FFE7019820F411
:10299000006001900398C168019840EA012001900D
:1029A000019820F480600190FFE7049842F600410E
:1029B000C4F20101884215D1FFE7009820F480504D
:1029C0000090009820F4005000900398416900980E
:1029D00040EA0110009003988169009840EA0110D4
:1029E0000090FFE700980499486002980499C86134
:1029F000039840680499C86301980499086205B077
:102A00007047000085B0049003910498006A01901B
:102A10000499086A20F48050086204984068009085
:102A20000498C0690290029820F4E0400290029855
:102A300020F44070029003980168029840EA012057
:102A40000290019820F40050019003988168019849
:102A500040EA01300190049842F60041C4F20101BD
:102A600088420BD1FFE7009820F480400090039843
:102A70004169009840EA81100090FFE700980499AE
:102A8000486002980499C8610398406804990864F2
:102A900001980499086205B07047000080B584B0C1
:102AA000039003980068006920F44050039A11686D
:102AB000D26810430861039988680A69496910431C
:102AC0000843029003980068C06841F20C61884393
:102AD0000299084303990968C8600398006840692F
:102AE00020F44070039A116892691043486103987A
:102AF000006843F60001C4F20101884204D1FFE7F7
:102B0000FDF7AAFF019003E0FDF794FF0190FFE7B6
:102B1000019819214843039A116852689200B0FB4A
:102B2000F2FC48F21F52C5F2EB12ACFB0230430933
:102B3000642003FB10CC322000EB0C10A0FB02023F
:102B4000F02000EA521000EB0310C2F343121044CD
:102B5000886004B080BD0000FFE7FEE74EF60C5031
:102B6000CEF200000068C0F30220704782B08DF8FA
:102B7000070000919DF9070000280AD4FFE700989C
:102B800000019DF907104EF20042CEF20002885477
:102B90000BE0009800019DF8071001F00F014EF6C0
:102BA0001452CEF200028854FFE702B070470000D2
:102BB00083B00290029800F0070000904EF60C518E
:102BC000CEF200010868019001984FF6FF02104014
:102BD00001900198009A40EA02200022C0F2FA52C5
:102BE000104301900198086003B0704780B58CB025
:102BF000002009900B90FDF74BFDFFF7EBFCFFF772
:102C00006DF8FFF7FBF8FFF7D1F8FFF755F940F241
:102C1000C800C2F2000006900421FEF711FF0698DA
:102C200008210791FEF70CFF079940F60000C4F257
:102C3000010008900122FDF7FFFC0898099A102175
:102C4000FDF7FAFC6420FDF745FBFFF759F920BBBF
:102C5000FFE700200A90FFE70A9804281CDCFFE742
:102C600041F20000C4F2010003904FF400510491BE
:102C70000122FDF7E1FC64200590FDF72BFB039892
:102C800004990022FDF7D8FC0598FDF723FBFFE728
:102C90000A9801300A90DFE7FFE7FFF771F9FFF7C5
:102CA000FBF9FFE740F26410C2F20000FFF7AAF957
:102CB00038BBFFE740F26411C2F200010A6840F23B
:102CC0005810C2F2000002604A6842608968816060
:102CD000416880680A22FFF7EBFB41F20000C4F272
:102CE000010001904FF4005102910122FDF7A4FC74
:102CF0003220FDF7EFFA019802990022FDF79CFCC3
:102D0000FFE7CFE790EA010F48BF81F0004100F1F3
:102D10000C82421A3CBF801A89184FEAD052A2EBAB
:102D2000D1534FF07F4C1CEA410F18BF9CEA026F51
:102D300000F03B804FF0004C4CEA00204CEA0121AF
:102D400021FA03FC10EB0C0C1ED202F1FF325FEAF9
:102D50001C2040EBC25038BF70471CF07F0F4FEA79
:102D6000400C18BFBCF17F4F38BF7047C3F1200340
:102D7000994008BF20F00100BCF17F4F38BF704779
:102D8000A0F1C04000F0C5B94FEA3C00000A40EB9A
:102D9000C25028BF1CF0FF0F4FEA400CE6D018BF0E
:102DA000BCF17F4F38BF7047EAE79CEA026F05D05D
:102DB00010EA5C0F08BF00F00040704710B500F04B
:102DC00062F900BF64FBBE3E4FF47F0C1CEAD012D8
:102DD0001EBF1CEAD11392EA0C0F93EA0C0F00F00D
:102DE000858090EA010F48BF42F4807240F4000CE5
:102DF00041F400002CF07F4120F07F4000B5A2EBB1
:102E0000030281420FF2081CACEB504E9EF800E02A
:102E1000C0F100004FEA4E0E00FB0EFC38BF490027
:102E20004FEA2C1C0CFB0EF34FEACE1E0EEB635E3A
:102E30004FEA112C0EFB0CFC4FEAC1214FEA1C5348
:102E400000FB031102F5FA024FEA112C0EFB0CFCF9
:102E50004FEA01314FEADC4C00FB0C1142EB2242FD
:102E6000C14228BF09184CEB03335DF804EB10EBAB
:102E7000410143EBC250B2F57C0F38BF704729D5F2
:102E800012F0F00F1CBF00F1C04000F0004070478E
:102E9000008182838485868788898B8C8D8E8F9133
:102EA0009293959697999A9C9D9FA0A2A3A5A7A857
:102EB000AAACAEB0B2B3B5B7B9BCBEC0C2C5C7C983
:102EC000CCCED1D4D7D9DCDFE2E6E9ECF0F3F7FAE7
:102ED000FE0000004FEA400C0CF1807CBCF17E4FFC
:102EE00028BF7047B0F1C04000F013B90CEAD1130D
:102EF00090EA010F48BF42F48072624538BF6345D3
:102F000007D213F47F0F16D080EA010000F00040D2
:102F1000704710B500F0B7F8097EFC3E00F005B828
:102F200080EA010000F00040704780EA010000F0F4
:102F3000004000F0EEB812F47F0F04BF0248704763
:102F400080EA010000F0E5B80000C07F41000B0EF0
:102F5000D3F19E0208D950F400034FEA032323FA69
:102F600002F048BF4042704710B500F08CF800BF37
:102F700049922480002070476FF0004282EA2000CE
:102F8000704700004FF47F0C1CEAD0121EBF1CEAF1
:102F9000D11392EA0C0F93EA0C0F00F0478090EAED
:102FA000010F48BF42F480724FF0004C4CEA002001
:102FB0004CEA012102EB0302A0FB0113A2F500027F
:102FC000002918BF43F001035B0028BF4FEA330319
:102FD00042EB22425FEA132C4CEBC2502EBFBCEBFB
:102FE000436FB2F57C0F70474FEA036CBCF1004FA2
:102FF00008BF20F00100B2F57C0F38BF70470BD539
:1030000082F0FF0212F5803FC8BF704700F1C04058
:10301000D8BF00F00040704700F5000C5FEA4C0C90
:1030200048BF7047B0F1C04000F073B80CEAD1134C
:1030300090EA010F48BF42F48072624538BF634591
:1030400004D280EA010000F00040704710B500F0A3
:103050001AF800BF8900013E00F007B800F009B877
:103060005FEA410C5FEA1C6C08D080EA010000F0C6
:1030700050B85FEA400C5FEA1C6CF6D14FF000409C
:10308000A0F5800070470EF1020E2EF0030E5EF8E0
:10309000044B244204D44FEA4102B2F17F4F11D8CD
:1030A0004FEA4003B3F17F4F0CD80ED14FEAD07CEA
:1030B0000CEB4C0C0CF1020CB2F17F4F08BF4CEB47
:1030C000D17C04E04FF0080C01E04FEAD17C0CEB1E
:1030D0004C0324FA03F404F00704B4F1040C06D200
:1030E0000EEB840CBDE810404CF0010C6047DFE8AB
:1030F0000CF0070802024FF00040A0F5800010BD60
:103100000846420018BFD2F1807288BF00F000402C
:1031100010BDFF2141EAD050C005704790EA010F71
:1031200048BF81F000413FF5F4AD421A04D882F067
:103130000042A0EB020011444FEAD052A2EBD1535F
:103140004FF07F4C1CEA410F18BF9CEA026F4AD037
:103150004FF0004C4CEA00204CEA012121FA03FC1C
:10316000B0EB0C0C0FD412F0FE0F36D05FEA4C001F
:103170001DD5001240EBC25038BF70471CF03F0F06
:1031800018BF70470BE05FEA1C20A2F1010240EB80
:10319000C25038BF70471CF07F0F18BF7047C3F193
:1031A0002003994014BF401E20F0010070474FEAF1
:1031B0001223800808BF7047B0FA80FCA2EB0C0213
:1031C000CCF1280C60FA0CF093EA122F04BF00EB4C
:1031D000C25070474FEAC3707047130A5FEADC10B1
:1031E00008BF7047F6E79CEA026F04D010EA5C0F54
:1031F00008BF0020704710B5FFF745FF40DFF63EDF
:1032000081F0004070470000000000000000010253
:10321000030406070809000000000102030402037A
:103220000405060708090A0B0C0D0E0F1010010209
:10323000503200080000002010000000500100087B
:1032400060320008100000206807000070010008CC
:1032500000127A00010000001000000000000000D1
:04000005080000ED02
:00000001FF
